:1000000010C02AC029C028C027C026C045C074C05F
:100010005BC022C021C096C01FC07FC01DC01CC0D5
:100020001BC011241FBECFE5D1E0DEBFCDBF10E065
:10003000A0E6B0E0E6E9F2E002C005900D92AC3631
:10004000B107D9F710E0ACE6B0E001C01D92AE36C2
:10005000B107E1F7A5D01DC1D3CF81E08CB98EB532
:1000600081608EBD08958BB186608BB989E990EC73
:1000700099BD88BD84E08CB98EB581608EBD089530
:10008000F2CFEBCFF0DF8FEF809360000895E5DFD4
:1000900081E08093600008951F920F920FB60F9237
:1000A00011248F939F93619881E0809361001DBC20
:1000B0001CBC8BB390E489278BBB9F918F910F90D1
:1000C0000FBE0F901F9018951F920F920FB60F92B0
:1000D00011248F939F93599A619A80916C0090910B
:1000E0006D008C5C9E479BBD8ABD9F918F910F9048
:1000F0000FBE0F901F9018951F920F920FB60F9280
:1001000011248F9381E0809361001DBC1CBC8F91F2
:100110000F900FBE0F901F9018951F920F920FB661
:100120000F9211248F939F9384B195B19250909325
:100130006D0080936C009F918F910F900FBE0F9078
:100140001F9018951F920F920FB60F9211242F93A4
:100150003F934F935F936F937F938F939F93AF934F
:10016000BF93EF93FF9344E069E370E089E690E08A
:100170005BD045E069E370E086E690E055D0FF9102
:10018000EF91BF91AF919F918F917F916F915F910F
:100190004F913F912F910F900FBE0F901F90189588
:1001A00078945BDF87B1876087B986B18F6E86B937
:1001B00081E089BF83B7856083BF8AB38F648ABBC0
:1001C0008BB380638BBBC0E0809161008823E9F032
:1001D0008BB3807F8BBB8BB3EC2FFF27E7FDF095B4
:1001E000EE59FF4F9081892B8BBB80916000C80F27
:1001F000813019F4C43024F406C0C7FF04C002C023
:10020000C0E001C0C3E01092610041E450E060E44E
:1002100070E089E690E024D047E450E062E470E0CA
:1002200086E690E01DD0D0CFFC018081880F8083CE
:100230002081DB018C9190E002C0959587954A95CD
:10024000E2F781709927282B20838081811103C0D8
:1002500081E08183089580818F3F09F411820895A0
:10026000CF93DF93EC0199818A81981779F0898186
:10027000882329F06115710539F0FB0104C041158F
:10028000510511F0FA01099589818A83DF91CF9197
:060290000895F894FFCF71
:0C029600010105060A09FF0000FF00003E
:00000001FF
