:1000000010C02AC029C028C027C026C026C04FC0A3
:1000100036C022C021C020C01FC05AC01DC01CC095
:100020001BC011241FBECFE5D1E0DEBFCDBF10E065
:10003000A0E6B0E0E8E4F1E002C005900D92A6363B
:10004000B107D9F710E0A6E6B0E001C01D92A836CE
:10005000B107E1F752D076C0D3CF1F920F920FB6FF
:100060000F9211248F93619881E0809360001DBCF2
:100070001CBC8F910F900FBE0F901F9018951F9270
:100080000F920FB60F9211248F939F93599A619AF2
:1000900080916600909167008C5C9E479BBD8ABDF5
:1000A0009F918F910F900FBE0F901F9018951F92E8
:1000B0000F920FB60F9211248F9381E0809360000E
:1000C0001DBC1CBC8F910F900FBE0F901F901895F8
:1000D0001F920F920FB60F9211248F939F9384B1AA
:1000E00095B1925090936700809366009F918F9195
:1000F0000F900FBE0F901F901895789481E08CB9E7
:100100008EB581608EBD3A9A86B18F6E86B98AB3FC
:100110008F608ABB80E0909160009923E1F39BB3EC
:10012000907F9BBB9BB3E82FFF27E7FDF095EF592E
:10013000FF4F2081922B9BBB815087FD83E0109263
:080140006000E9CFF894FFCF45
:060148000105060A090092
:00000001FF
