:1000000010C022C021C020C01FC01EC01EC01CC006
:1000100034C01AC019C018C017C016C015C014C00B
:1000200013C011241FBECFE5D1E0DEBFCDBF10E06D
:10003000A0E6B0E0E0EFF0E002C005900D92A63639
:10004000B107D9F72DD052C0DBCF1F920F920FB658
:100050000F9211248F939F938CB182708CB981E0A1
:100060008093600081E090E09DBD8CBD9F918F9159
:100070000F900FBE0F901F9018951F920F920FB602
:100080000F9211248F939F93619A84E391E89BBD13
:100090008ABD9F918F910F900FBE0F901F90189562
:1000A000609A8EB581608EBD78948AB38F608ABB6A
:1000B00080E090916000992361F0E82FF0E0EF5923
:1000C000FF4F90819BBB8F5F843008F080E01092DF
:1000D0006000EFEBFDE53197F1F700C00000EBE8C1
:1000E000F2E03197F1F700C00000E3CFF894FFCFC2
:0600F000010104020800FA
:00000001FF
